:100000000C94D6060C9407070C9407070C9407076A
:100010000C9407070C9407070C9407070C942532DF
:100020000C9407070C9407070C9407070C94070718
:100030000C9407070C94AB310C9407070C9407073A
:100040000C9407070C9407070C9407070C940707F8
:100050000C9407070C9407070C9407070C94FB30CB
:100060000C9407070C948C320C9407070C94070728
:100070000C9407070C9407070C9407070C940707C8
:100080000C9407070C9407070C9407070C940707B8
:100090000C9407070C9407070C9407070C94032F84
:1000A0000C9407070C9407070C9407070C94070798
:1000B0000C9407070C9407070C9407070C94070788
:1000C0000C9407070C9407070C9407070C946F31E6
:1000D0000C9445310C9407070C9407070C94070700
:1000E0000C9407070C94CE080C948B2D0C94FE0DE9
:1000F0000C94951C0C9430300C94E01D0C94D6306C
:100100000C94161F0C94BD300C94F0300C944230BB
:100110000C94041D0C94F8080C94B62E0C946B1DD2
:100120000C94A51D0C94E02D0C9406300C94202406
:100130000C94C8080C94081E0C94101E0C94833068
:100140000C94C2070C9400330C944E0E0C94AE0D1C
:100150000C946B2E0C94E5070C94E0130C94211D69
:100160000C94111E0C94E80B0C94C10A0C9473119E
:100170000C94570B0C94F32F0C9472110C94B6083A
:100180000C9408090C94C1300C94C2080C94BF174D
:100190000C94C1070C94EC080C94350B0C94D1070B
:1001A0000C94652D0C948C300C94F2080C94E9227C
:1001B0000C941C080C94DC2E0C94D4080C94603025
:1001C0000C9436300C94E6080C94BF070C941B2E4C
:1001D0000C9404090C94DF1D0C94B0080C94320CA0
:1001E0000C94FE080C94C0070C94FC1D0C94F01D9C
:1001F0000C9480300C94EC070C9430100C943C3030
:100200000C94E6320C9452300C94EC2F0C94DA08D7
:100210000C940B090C94E0080C94F6300C94490BE8
:100220000C94A4300C94171F0C94240B0C94BC0851
:100230007152636D642C3732363537333635373487
:10024000007173546872656164496E666F0071660F
:10025000546872656164496E666F00714300715342
:100260007570706F727465640054585832303A5823
:10027000583B32313A585858583B32323A5858580D
:1002800058585858583B7468726561643A313B005D
:1002900000000000003E5B4F5B3E3E6B4F6B3E1C20
:1002A0003E7C3E1C183C7E3C181C577D571C1C5E37
:1002B0007F5E1C00183C1800FFE7C3E7FF0018240E
:1002C0001800FFE7DBE7FF30483A060E26297929B8
:1002D00026407F050507407F05253F5A3CE73C5AED
:1002E0007F3E1C1C08081C1C3E7F14227F22145FCA
:1002F0005F005F5F06097F017F006689956A606025
:1003000060606094A2FFA29408047E040810207E1E
:10031000201008082A1C08081C2A08081E101010A3
:10032000100C1E0C1E0C30383E3830060E3E0E06E9
:10033000000000000000005F00000007000700143C
:100340007F147F14242A7F2A1223130864623649FB
:100350005620500008070300001C224100004122E3
:100360001C002A1C7F1C2A08083E080800807030E8
:100370000008080808080000606000201008040257
:100380003E5149453E00427F40007249494946215D
:1003900041494D331814127F1027454545393C4AD1
:1003A00049493141211109073649494936464949E8
:1003B000291E000014000000403400000008142230
:1003C000411414141414004122140802015909069E
:1003D0003E415D594E7C1211127C7F494949363E9F
:1003E000414141227F4141413E7F494949417F0985
:1003F0000909013E414151737F0808087F00417F90
:1004000041002040413F017F081422417F4040408D
:10041000407F021C027F7F0408107F3E4141413E25
:100420007F090909063E4151215E7F0919294626A7
:100430004949493203017F01033F4040403F1F20AB
:1004400040201F3F4038403F631408146303047882
:1004500004036159494D43007F41414102040810A2
:1004600020004141417F04020102044040404040DD
:10047000000307080020545478407F28444438384B
:1004800044444428384444287F38545454180008BD
:100490007E090218A4A49C787F0804047800447D97
:1004A00040002040403D007F1028440000417F4034
:1004B000007C047804787C08040478384444443888
:1004C000FC1824241818242418FC7C080404084868
:1004D0005454542404043F44243C4040207C1C20B9
:1004E00040201C3C4030403C44281028444C909014
:1004F000907C4464544C440008364100000077006E
:1005000000004136080002010204023C2623263C7A
:100510001EA1A161123A4040207A38545455592105
:1005200055557941225454784221555478402054ED
:100530005579400C1E52721239555555593954543B
:10054000545939555454580000457C410002457DAA
:10055000420001457C407D1211127DF0282528F0D3
:100560007C545545002054547C547C0A097F493200
:10057000494949323A4444443A324A4848303A4177
:1005800041217A3A42402078009DA0A07D3D424220
:10059000423D3D4040403D3C24FF2424487E4943A9
:1005A000662B2FFC2F2BFF0929F620C0887E09031C
:1005B00020545479410000447D413048484A323843
:1005C0004040227A007A0A0A727D0D19317D26296F
:1005D000292F28262929292630484D402038080867
:1005E000080808080808382F10C8ACBA2F1028349B
:1005F000FA00007B000008142A142222142A14088E
:100600005500550055AA55AA55AAFF55FF55FF009C
:100610000000FF00101010FF00141414FF00101051
:10062000FF00FF1010F010F0141414FC001414F765
:1006300000FF0000FF00FF1414F404FC1414171052
:100640001F10101F101F1414141F00101010F000A2
:100650000000001F101010101F10101010F01000DC
:100660000000FF101010101010101010FF100000EC
:1006700000FF140000FF00FF00001F10170000FC27
:1006800004F414141710171414F404F40000FF00F9
:10069000F714141414141414F700F7141414171482
:1006A00010101F101F141414F4141010F010F00088
:1006B000001F101F0000001F14000000FC140000A9
:1006C000F010F01010FF10FF141414FF141010108D
:1006D0001F00000000F010FFFFFFFFFFF0F0F0F040
:1006E000F0FFFFFF0000000000FFFF0F0F0F0F0FD4
:1006F0003844443844FC4A4A4A347E020206060220
:100700007E027E0263554941633844443C04407E86
:10071000201E2006027E020299A5E7A5991C2A49FF
:100720002A1C4C7201724C304A4D4D30304878488A
:1007300030BC625A463D3E494949007E0101017E76
:100740002A2A2A2A2A44445F444440514A444040C9
:10075000444A51400000FF0103E080FF0000080808
:100760006B6B083612362436060F090F0600001888
:10077000180000001010003040FF0101001F0101AF
:100780001E00191D1712003C3C3C3C0000000000FC
:10079000DB40A4A62EAF2000A1C8D300408DAED56B
:1007A00080A80000600000000000000000000000C1
:1007B000000000E000000000000000000000000059
:1007C0000001E00000000000000000000000000048
:1007D00001F0000000000000000000000000000325
:1007E000F00000000000000000000000000007F022
:1007F0000000000000000000000000000007F800FA
:100800000000000000000000000000000FF80000E1
:100810000003C0007E000001E0007F0FF800000030
:1008200003C000FE000001E000FFEFF8000000033D
:10083000C000FE000001E000FFFFF800000003C060
:1008400000F00000000F007FFE7FC0000003C0002A
:10085000F00000000F003FFE7FF83FF1FBCFFCFEF1
:10086000F3BC3DEFE01FFE7FFF7FFBFFDFFEFEFFDF
:10087000BC3DEFE01FC6FFFF7FFBFFDFFEFEFFBCBE
:100880003DEFE00FE3C7FE787BC3DE1EF0FFBC3D0B
:10089000EF0007FF87FC787BC3DE1EF0F83C3DEFDE
:1008A0000001FFFFF0007BC3C01EF0F03C3DEF00F5
:1008B00001F37FE03FFBC3CFFEF0F03C3DEF0003D0
:1008C000E33F807FFBC3DFFEF0F03C3DEF0007E736
:1008D0003C00787BC3DE1EF0F03C3DEF0007FFBE1E
:1008E00000787BC3DE1EF0F03C3DEF0007FFFE000A
:1008F000787BC3DE1EF0F03C3DEF000FFFFE007F73
:10090000FBFFDFFEF0F03FFDEFE00FFFFF007FFB9E
:10091000FFDFFEF0F03FFDEFE00FF9FF003E79F959
:10092000CF9EF0F01F3DE7E01FF1FF000000000048
:10093000000000000000001F80FF007FFFFFFFFF9E
:10094000FFFFFFFFFFE01C007F007FFFFFFFFEB403
:100950006D888D18E000001F007FFFFFFFFE95AD42
:100960007DB577E000000F007FFFFFFFFEA5AD9D86
:100970008D19E0000006007FFFFFFFFEB5ADEDB56D
:100980007EE0000000000001800000000000000088
:100990000000038000000000000000000007C0000D
:1009A000000000000000000007C000000000000080
:1009B0000000000FC00000000000000000001FE069
:1009C0000000000000000000001FE0000000000028
:1009D000000000003FE00000000000000000003FB9
:1009E000F00000000000000000007FF000000000A8
:1009F0000000001FF87FF0000000000000003FFE34
:100A00007FF0000000000000003FFF7FF0000000CA
:100A1000000000001FFFFBE0000000000000000FCE
:100A2000FFF9FFC00000000000000FFFF9FFF80011
:100A3000000000000007FFF1FFFF000000000000C1
:100A400003FC73FFFF80000000000001FE3FFFFF7A
:100A500080000000000000FF1E0FFF0000000000EB
:100A600000007FFE1FFC000000000000003FFFFFB1
:100A7000F8000000000000000FDFFFE000000000B1
:100A80000000001F19FFC0000000000000003F3CF4
:100A9000FF00000000000000007E7CF80000000065
:100AA000000000007FFE7C0000000000000000FF4E
:100AB000FFFC0000000000000000FFFFFE0000003F
:100AC0000000000000FFFFFE000000000000000129
:100AD000FFEFFE0000000000000001FFCFFE00005D
:100AE000000000000003FF07FE00000000000000FF
:100AF00003FC07FE0000000000000003F003FE00FE
:100B0000000000000000018000FE00000000000066
:100B1000000000007E000000000000000000003E19
:100B2000000000000000000000000C0000000000B9
:100B300000078000FC000003C0000000078001FCEB
:100B4000000003C0000000078001FC000003C0009B
:100B50000000078001E00000001E00000007800187
:100B6000E00000001E007FE3F79FF9FDE7787BDFE0
:100B7000C0FFF7FFBFFDFDFF787BDFC0FFF7FFBFC2
:100B8000FDFDFF787BDFC0F0F787BC3DE1FF787BA0
:100B9000DE00F0F787BC3DE1F0787BDE0000F787F0
:100BA000803DE1E0787BDE007FF7879FFDE1E07824
:100BB0007BDE00FFF787BFFDE1E0787BDE00F0F72A
:100BC00087BC3DE1E0787BDE00F0F787BC3DE1E0EB
:100BD000787BDE00F0F787BC3DE1E0787BDE00FF4C
:100BE000F7FFBFFDE1E07FFBDFC0FFF7FFBFFDE1E7
:100BF000E07FFBDFC07CF3F39F3DE1E03E7BCFC0B5
:100C00000000000000000000000000FFFFFFFFFFE9
:100C1000FFFFFFFFFFC0FFFFFFFFFD68DB111A3181
:100C2000C0FFFFFFFFFD2B5AFB6AEFC0FFFFFFFF76
:100C3000FD4B5B3B1A33C0FFFFFFFFFD6B5BDB6AC5
:100C4000FDC0000103070F1F3F7F0080C0E0F0F8E8
:100C5000FCFE2200FF210000002200250028002BBE
:100C6000002E003100340002010000050108010BD4
:100C700001000020002300260029002C002F003254
:100C8000000001000003010601090100000B0C0334
:100C90000A0D0E0F09080405020000000000000004
:100CA0000000000000000000000000000000000044
:100CB00000000000000000131211000000000000FE
:100CC0000000000000000000000000000000000024
:100CD0000000000000000000000000000000000014
:100CE0000000002100240027002A002D00300033DE
:100CF0000001010000040107010A01010210202087
:100D0000080810204010204080020102010804025F
:100D100001010204081020408080402010080402D5
:100D2000018004020180402010080402010804022E
:100D30000101020408102040800102040810204034
:100D400080044080048008101020400408102040D7
:100D50008005050505070508080808020202020AC1
:100D60000A0808040404040101010101010101034E
:100D700003030303030303040707070C0C0C0C0C09
:100D80000C0C0C0202020206060606060606060BFC
:100D90000B0B0B0B0B0B0B050505080807070404D1
:100DA000040A0A0A0A0A0A000033E63211241FBEA6
:100DB000CFEFD1E2DEBFCDBF00E00CBF13E0A0E07B
:100DC000B2E0E0E0F5E700E00BBF02C007900D9253
:100DD000AA37B107D9F727E0AAE7B3E001C01D920F
:100DE000AF39B207E1F716E0C5EDD6E000E006C086
:100DF00021970109802FFE010E94F135C43DD107E2
:100E000080E00807A9F70E9411350C9486370C94EE
:100E1000000085EC8093BC0010928C07089585ED4E
:100E20008093BC008091BC0084FDFCCF10928C07A5
:100E30000895811104C085E88093BC00089585EC75
:100E40008093BC000895909365078093640708958C
:100E500090936907809368070895AC012091660715
:100E6000260F3327331F21323105F4F480918C078C
:100E70008430E1F490E00FC0E0916607292F30E064
:100E8000E20FF32FF11D240F351FD9012C91EC5BDC
:100E9000F84F20839F5F961778F380916607680F5D
:100EA0006093660780E0089581E0089582E00895E8
:100EB0000F93413208F049C090918C079111FCCFFB
:100EC00092E090938C0700938E079FEF90938B078F
:100ED0007093900760938F07109292074093910749
:100EE0001092930790E0880F991F90919307892B98
:100EF0008093930780918D078130B9F085EE8093C0
:100F0000BC00222321F080918C078230D1F38091A4
:100F10008B078F3FE9F080918B078032D9F0809169
:100F20008B07803381F084E011C010928D0780918F
:100F300093078093BB008091BC0083FDF8CF85ECC4
:100F40008093BC00DECF83E001C081E00F91089563
:100F500080E0FCCF82E0FACF9B01AC0160E074E25C
:100F600084EF90E00E94B0352051310941095109C8
:100F700056954795379527952093B800089508957D
:100F800008950895E091350780913407E81730F40B
:100F9000F0E0EC5EF84F808190E008958FEF9FEFD6
:100FA00008959091350780913407981758F4E92FE8
:100FB000F0E0EC5EF84F208130E09F5F90933507C2
:100FC000C90108952FEF3FEFFBCF80913407909137
:100FD0003507891B990B0895CF92DF92EF92FF920C
:100FE0000F931F93CF93DF938C016B017A01809154
:100FF0001307882399F0D0E0C0E0CE15DF0590F408
:10100000D801ED91FC910190F081E02DD601AC0F5B
:10101000BD1F6C91C80119952196EFCF642FC601B1
:101020000E942D07C701DF91CF911F910F91FF9073
:10103000EF90DF90CF900895CF93DF931F92CDB7BD
:10104000DEB7FC016983909113079923F1F0909129
:101050003607903250F081E090E09383828390E0F5
:1010600080E00F90DF91CF91089580913707E82FAE
:10107000F0E0ED50F94F998190838F5F80933707AF
:101080008093360781E090E0ECCF61E0CE010196DD
:101090000E942D0781E090E0E4CF0F934091360746
:1010A000062F21E063EF76E08091F2060E94580758
:1010B0001092370710923607109213070F91089578
:1010C00061E00E944D08089581E0809313076093CA
:1010D000F206109237071092360708950E946408AE
:1010E0000895CB01BA010E94AC070895FC01138258
:1010F000128288EE93E0A0E0B0E084839583A6831B
:10110000B78389EA92E0918380830895019709F07B
:1011100008956F3F7F4FE1F788E397E00E947608DC
:10112000F7CF08958250823108F075C0E82FF0E0C3
:101130008827E256F74F8F4F0C94F13504090809C0
:10114000B008B608BC080B09C208C808CE08D40805
:10115000DA08E008E608EC080B09F208F808FE08CF
:10116000E0E8F0E080818F7780830895E0E8F0E0A8
:1011700080818F7D80830895E0E8F0E08081877F23
:1011800080830895E0EBF0E080818F77808308957D
:10119000E0EBF0E080818F7D80830895E0E9F0E06E
:1011A00080818F7780830895E0E9F0E080818F7DF2
:1011B00080830895E0E9F0E08081877F808308954F
:1011C000E0EAF0E080818F7780830895E0EAF0E044
:1011D00080818F7D80830895E0EAF0E08081877FC1
:1011E00080830895E0E2F1E080818F778083089525
:1011F000E0E2F1E080818F7D80830895E0E2F1E01C
:101200008081877F8083089584B58F7784BD08951A
:1012100084B58F7D84BD0895CF93DF93282F30E070
:10122000F901E557F34F8491F901E550F34FD4915B
:10123000F901EF5AF24FC491CC23B1F081110EC0E5
:10124000EC2FF0E0EE0FFF1FEF58F34FA591B49194
:10125000EC91ED2331F490E080E008C00E94920808
:10126000EFCF81E090E002C090E080E0DF91CF918D
:1012700008951F93CF93DF93282F30E0F901E557AE
:10128000F34F8491F901E550F34F1491F901EF5AAE
:10129000F24FC491CC23A9F0D62F811116C0EC2FA8
:1012A000F0E0EE0FFF1FE95AF34FA591B4918FB70D
:1012B000F894D1110DC09C91E12FE095E923EC93B6
:1012C0008FBFDF91CF911F9108950E949208E7CFC1
:1012D000EC91E12BEC93F4CF10928C0781E080939A
:1012E0008E0710928D0761E084E10E94390961E068
:1012F00085E10E943909E9EBF0E080818C7F8083F1
:1013000088E48093B80085E48093BC00089510922F
:1013100035071092340710923707109236070E9453
:101320006C098FEB97E00E94230780EC97E00E9406
:1013300028070895CF93DF9390E0FC01E550F34F29
:1013400024918F5A924FFC018491882319F190E0E7
:10135000880F991FFC01EF51F34FA591B491FC0147
:10136000E95AF34FC591D491662349F06230A9F050
:101370008FB7F894EC91E22BEC938FBF0BC09FB723
:10138000F8948C91E22FE0958E238C938881E8234A
:10139000E8839FBFDF91CF9108959FB7F8943C9168
:1013A000822F809583238C93E881E22BE8839FBF73
:1013B000F1CFCF93CFB7F89480919407811123C0D8
:1013C000E6E8FDE08491E0E3FDE09491E82FF0E0B1
:1013D000EE0FFF1FEF51F34FA591B491EC91E9236C
:1013E000D1F061E085E30E949A098CB580618CBDE3
:1013F0008CB580648CBD61E084E30E949A0961E051
:1014000083E30E949A09809194078F5F80939407E9
:10141000CFBFCF91089561E085E30E943909E1CF04
:10142000789484B5836084BD85B5836085BDEEE620
:10143000F0E0808181608083E1E8F0E082E08083F9
:10144000808181608083E0E8F0E08081816080833A
:10145000E1EBF0E0808184608083E0EBF0E080816C
:1014600081608083E1E9F0E0808183608083E0E94E
:10147000F0E0808181608083E1EAF0E08081836038
:101480008083E0EAF0E0808181608083E1E2F1E046
:10149000808183608083E0E2F1E0808181608083ED
:1014A00087E880937A001092C10008953FB7F894BE
:1014B0008091EE069091EF06A091F006B091F106B2
:1014C00026B5A89B05C02F3F19F00196A11DB11D9F
:1014D0003FBFBA2FA92F982F8827BC01CD01620FDB
:1014E000711D811D911D660F771F881F991F660F43
:1014F000771F881F991F08958F929F92AF92BF9276
:10150000CF92DF92EF92FF926B017C010E94560A0C
:101510004B015C011BC021E0C21AD108E108F108AF
:1015200088EE880E83E0981EA11CB11CC114D10462
:10153000E104F10459F00E94560A681979098A09F0
:101540009B09683E73408105910528F7C114D104B9
:10155000E104F10459F7FF90EF90DF90CF90BF9036
:10156000AF909F908F9008952FB7F8946091EA06FE
:101570007091EB068091EC069091ED062FBF0895D7
:101580000895CF92DF92EF92FF920F931F93CF9324
:10159000DF938C01DB01D0E0C0E07A0181E0E81A42
:1015A000F108452BA1F0F80180819181FC01208197
:1015B00031816D01FFEFCF1ADF0A6C91C801F9018B
:1015C0001995892B21F02196A701D601E6CFCE01EE
:1015D000DF91CF911F910F91FF90EF90DF90CF900F
:1015E0000895019709F008956F3F7F4FE1F7ECE40C
:1015F000F6E01382128288EE93E0A0E0B0E08483EC
:101600009583A683B78387E992E09183808385EDF4
:1016100090E09587848784ED90E09787868780EDBA
:1016200090E0918B808B81ED90E0938B828B82EDAB
:1016300090E0958B848B86ED90E0978B868B118E56
:10164000128E138E148ECFCFFC01938D848D98173C
:1016500020F4891B990B019708952FE330E0291B93
:101660003109820F932F911D0895FC01918D828D78
:10167000981761F0A28DAE0FBF2FB11D5D968C91B2
:10168000928D9F5F9F73928F90E008958FEF9FEFF1
:101690000895FC01918D828D981731F0828DE80FAD
:1016A000F11D858D90E008958FEF9FEF0895FC0167
:1016B000218D30E0205C3F4F828DA901481B5109EC
:1016C000CA018F73992708958CE496E00E94570B06
:1016D00021E0892B09F420E0822F0895CF92DF9238
:1016E000EF92FF921F93CF93DF93EC016A017B018E
:1016F000122F60E079E08DE390E0A70196010E944F
:10170000B035215031094109510956954795379512
:101710002795E889F98982E08083C11481EED80693
:10172000E104F10421F0211580E1380798F0E889FF
:10173000F989108260E874E88EE190E0A7019601D3
:101740000E94B035215031094109510956954795FC
:1017500037952795EC85FD853083EE85FF852083C1
:10176000188EEC89FD891083EA89FB89808188695C
:101770008083EA89FB8980818F7D8083DF91CF918F
:101780001F91FF90EF90DF90CF900895FC01A48D02
:10179000A80FB92FB11DA35ABF4F2C91848D90E093
:1017A00001968F739078848FA689B7892C93A0892E
:1017B000B1898C91837080648C93938D848D981300
:1017C00008950288F389E02D80818F7D8083F8CF92
:1017D0000F931F93CF93DF93EC0181E0888F9B8D54
:1017E0008C8D9817B1F0062F8B8D90E001968F733A
:1017F0009078182F8C8D81131EC00FB607FCFACF7E
:10180000E889F989808185FFF5CFCE010E94C60B5A
:10181000F1CFE889F989808185FFE5CF9FB7F894FA
:10182000EE89FF896083E889F9898081837080640B
:1018300080839FBF10C0EB8DEC0FFD2FF11DE35A8D
:10184000FF4F00839FB7F8941B8FEA89FB89808143
:10185000806280839FBF81E090E0DF91CF911F91F4
:101860000F910895CF93DF93EC01888D811104C00F
:101870000DC00FB607FE0DC0EA89FB89808185FD8A
:10188000F8CFA889B9898C9186FFF3CFDF91CF91EA
:101890000895808185FFF0CFE889F989808185FFEF
:1018A000EBCFCE010E94C60BE7CF80E090E0892B02
:1018B00041F080E090E0892B21F00E94000081112E
:1018C00021C080E090E0892B41F080E090E0892BFE
:1018D00021F00E940000811118C080E090E0892B67
:1018E00021F00E94640B811113C080E090E0892BED
:1018F00041F080E090E0892B21F00E9400008111EE
:101900000AC008950E940000DCCF0E940000E5CFCD
:101910000E940000EACF0E940000F3CFEF92FF92F6
:101920000F931F93CF93DF93EC0177230CF46EC0DA
:10193000EC81FD816E177F070CF068C055230CF415
:101940006CC08E819F81DA01A20FB31F8A179B079B
:101950001CF49C01241B350B121613060CF056C008
:10196000922FEF8CF8A0842F8695869586958E9F72
:10197000D0018F9FB00D1124A60FB71FAE0DBF1D54
:10198000477009F188E0841B482F682F70E0FB0145
:10199000E65BF34FE491281750F4621B71092FEFB7
:1019A00030E002C0359527956A95E2F7E2230130D1
:1019B0001105C1F1D8F10230110509F43CC02C81A8
:1019C0003D81A20FB31F941708F1E92FE41BE83003
:1019D00078F00230110599F101151105D9F12FEFB9
:1019E0002C938C819D81A80FB91FE850E830C0F777
:1019F000EE2361F0E770F0E0EE5BF34FE49101302D
:101A0000110551F168F10230110579F1DF91CF91A3
:101A10001F910F91FF90EF900895240F351F50E014
:101A200040E08FCF8C91E82BEC93C9CFE0958C915F
:101A3000E823EC93C4CF8C91E827EC93C0CF8C9132
:101A400080958C938C819D81A80FB91FE850E83058
:101A5000B0F7CECF20E0C4CF8C91E82BEC93D6CF5B
:101A6000E0958C91E823EC93D1CF8C91E827EC930F
:101A7000CDCF0F931F93CF93DF9355230CF440C02A
:101A8000DC011696ED91FC914E175F07CCF577239C
:101A9000E4F1FC01A481B581FB01E20FF31FAE1755
:101AA000BF071CF49D01261B370B1216130644F5C5
:101AB000FC01C78DD0A1CA01552364F19595879586
:101AC0009595879595958795A89FF001A99FF00D0D
:101AD000B89FF00D11246E0F7F1FC60FD71F4770E0
:101AE000552781E090E002C0880F991F4A95E2F7E0
:101AF000482F0130110581F0D0F00230110519F1A5
:101B0000DF91CF911F910F910895260F371F70E03D
:101B100060E0BFCF0796D2CFB90161507109232B86
:101B200079F38881842B88839B012196F5CF80955A
:101B3000A90141505109232B19F3988198239883C7
:101B40009A012196F5CFB90161507109232BC1F299
:101B50008881842788839B012196F5CF0F931F935B
:101B6000F901DC0156963C9156973230F1F0333052
:101B7000B1F1313011F020E010C014962D913C915C
:101B8000241B350B21503109AB01BF016150710994
:101B9000D901A61BB70BBD0121E021112BC09F016C
:101BA0000E948E0C1F910F91089514962D913C91D7
:101BB000D901A61BB70BBD0161507109DC01169656
:101BC0002D913C91D901A41BB50BAD014150510998
:101BD0009F0121503109421B530B20E0DECF1696A6
:101BE0002D913C91261B370BBA01A9014150510997
:101BF00021E0D3CF9F010E94390DD4CF0F931F93C3
:101C0000F901DC0156963C9156973230C1F03330E1
:101C100081F1313011F020E00AC014962D913C91F1
:101C2000241B350BAB01B9016150710921E0211171
:101C300031C09F010E94390D1F910F910895149694
:101C40002D913C91D901A61BB70BBD0161507109C3
:101C5000DC0116962D913C91D901A41BB50BAD0169
:101C6000415051099F0121503109621B730B20E043
:101C7000DECF16962D913C91261B370B2150310952
:101C8000BA01AF0141505109D901A41BB50BAD01F7
:101C900021E0CDCF9F010E948E0CCECFCF93DF935A
:101CA00077231CF1DC011896ED91FC9119976E17C2
:101CB0007F07DCF45523CCF01A96ED91FC911B972D
:101CC0004E175F0794F45696EC915697E230D1F098
:101CD000E33051F1E13061F02130310579F108F460
:101CE00057C02230310509F47FC0DF91CF910895AC
:101CF0001496ED91FC91E41BF50BAB01BF01615013
:101D00007109EACFEC01EC81FD81DF01A61BB70B65
:101D1000BD0161507109EE81FF81EF01C41BD50B3C
:101D2000AE0141505109D8CF1696ED91FC91E61BBA
:101D3000F70BBA01AF0141505109CECFEC01EF8D45
:101D4000F8A19A0155230CF13595279535952795DE
:101D500035952795EC01AC81BD81A29FC001A39F61
:101D6000900DB29F900D1124680F791FE60FF71F99
:101D70004770552721E030E002C0220F331F4A95FB
:101D8000E2F78081822B8083B0CF295F3F4FDCCF89
:101D9000DC015F96ED91FC919A01552314F1359584
:101DA00027953595279535952795EC01AC81BD8113
:101DB000A29FC001A39F900DB29F900D1124680FA8
:101DC000791FE60FF71F4770552781E090E002C0AA
:101DD000880F991F4A95E2F7809590818923808327
:101DE00084CF295F3F4FDBCFDC015F96ED91FC9103
:101DF0009A0155230CF135952795359527953595FD
:101E00002795EC01AC81BD81A29FC001A39F900DDD
:101E1000B29F900D1124680F791FE60FF71F4770CE
:101E2000552721E030E002C0220F331F4A95E2F728
:101E300080818227808359CF295F3F4FDCCFAF92CB
:101E4000BF92CF92DF92EF92FF920F931F93CF93A7
:101E5000DF93EC018B01F42E8D8D9E8D009709F49C
:101E60005AC069A1062E000C770B0E946E088D8D5A
:101E70009E8DDC01ED91FC910190F081E02D60E000
:101E80001995CC24C394D12C2DC08D8D9E8D0E948C
:101E9000600869A1062E000C770B8D8D9E8D0E9427
:101EA0006E088D8D9E8DDC01ED91FC910190F0818D
:101EB000E02D60E01995CC24C394D12C8D8D9E8D9E
:101EC000DC01ED91FC91208131815801BFEFAB1A0B
:101ED000BB0AF8016491F9011995FFEFCF1ADF0AE7
:101EE000FE2C8501EE24EA94EF0CFF2029F0B0E2ED
:101EF000CB16D10418F3C9CF8D8D9E8D0E9460083A
:101F0000DF91CF911F910F91FF90EF90DF90CF90D5
:101F1000BF90AF900895EDA5FEA590818BA9809507
:101F20008923808302C0F52E89015FEF5F0DFF20BA
:101F300039F398012F5F3F4FF80104918B8D9C8DF1
:101F4000892B39F00EBD00000DB407FEFDCF8EB514
:101F5000EACF80E817C0E9A5FAA5408199A9909534
:101F600094239083EBA5FCA590814AA9942B9083A0
:101F7000EBA5FCA540819AA990959423908390E0CD
:101F800095958795882379F2902F982321F3E9A5D9
:101F9000FAA5908149A9942B9083E4CF1F93CF9306
:101FA000DF93EC018D8D9E8D009791F4ADA5BEA5BC
:101FB0009C918BA9809589238C938B8D9C8D892BEB
:101FC00051F16EBD00000DB407FEFDCF8EB51FC0F0
:101FD000162F69A1062E000C770B0E946E088D8DBE
:101FE0009E8DDC01ED91FC910190F081E02D60E08F
:101FF00019958D8D9E8DDC01ED91FC910190F08104
:10200000E02D612F19958D8D9E8D0E946008DF91C6
:10201000CF911F91089580E817C0A9A5BAA52C916A
:1020200099A9909592239C93ABA5BCA59C912AA9B4
:10203000922B9C93ABA5BCA52C919AA99095922329
:102040009C9390E095958795882309F3962F982384
:1020500021F3A9A5BAA59C9129A9922B9C93E4CF21
:102060001F93CF93DF93EC01162F8D8D9E8D0097DC
:10207000D1F04DA95EA96FA978AD0E947108112316
:1020800011F167EACE010E94CE0F8D8D9E8D0097D3
:10209000E1F4EFA5F8A980819CA9892B8083DF91C9
:1020A000CF911F9108958B8D9C8D892B21F09EAD32
:1020B0008FAD9CBD8DBDEFA5F8A990818CA98095B1
:1020C00089238083DCCF66EADDCF49AD5AAD6BADA5
:1020D0007CAD0E947108E3CF8F929F92AF92BF9226
:1020E000CF92DF92EF92FF920F931F93CF93DF93E4
:1020F000EC018D8D9E8D009709F442C04DA95EA91B
:102100006FA978AD0E94710845E062E57CE0CE01E0
:102110000E941F0F6C816150CE010E94CE0F4C8136
:102120005D812E813F81295F3F4FC9019923C4F111
:10213000959587959595879595958795489F800165
:10214000499F100D589F100D1124EF8CF8A08D8D14
:102150009E8D009709F47AC069A1062E000C770BBA
:102160000E946E088D8D9E8DDC01ED91FC91019099
:10217000F081E02D60E41995CC24C394D12C3FC0AC
:102180008B8D9C8D892B21F09EAD8FAD9CBD8DBD1F
:10219000EFA5F8A990818CA9809589238083B4CF7D
:1021A0000796C6CF8D8D9E8D0E94600869A1062E70
:1021B000000C770B8D8D9E8D0E946E088D8D9E8DEF
:1021C000DC01ED91FC910190F081E02D60E4199526
:1021D000CC24C394D12C8D8D9E8DDC01ED91FC918E
:1021E0000190F081E02D4701BFEF8B1A9B0AD701C8
:1021F0006C911995BFEFCB1ADB0A85017401580168
:10220000B1E0AB1AB108012B29F0E0E2CE16D104FF
:1022100010F3C8CF8D8D9E8D0E9460088D8D9E8D90
:10222000009709F058C0EFA5F8A980819CA9892BD7
:102230008083DF91CF911F910F91FF90EF90DF90FE
:10224000CF90BF90AF909F908F900895EDA5FEA581
:1022500080819BA9892B808302C07A018901980122
:1022600021503109012BD1F2A7014F5F5F4FF701D8
:1022700070818B8D9C8D892B39F07EBD00000DB453
:1022800007FEFDCF8EB5E9CF90E819C0E9A5FAA504
:10229000608189A9809586238083EBA5FCA5808138
:1022A0006AA9862B8083EBA5FCA560818AA980950D
:1022B00086238083892F90E095958795982F992381
:1022C00061F2872F892311F3E9A5FAA5808169A915
:1022D000862B8083E2CF49AD5AAD6BAD7CAD0E94B9
:1022E0007108A7CF0895FC016370668B613079F0A7
:1022F00028F0623019F0633051F00895848195819F
:1023000091878087868197819387828708958681C8
:102310009781918780878481958193878287EDCF8C
:10232000611101C061E0FC01648B411101C041E019
:10233000FC01458B0895462F0E94901108952F921D
:102340003F924F925F926F927F928F929F92AF9245
:10235000BF92CF92DF92EF92FF920F931F93CF9392
:10236000DF93CDB7DEB760970FB6F894DEBF0FBE30
:10237000CDBF9A8389831B012A01922E1987088772
:10238000FE82ED828C2CAF82DC0159962D913C911E
:102390005A972115310509F444C0F9013496E491A6
:1023A0009E1A492D50E0CA01880F991F880F991F66
:1023B000880F991F841B950BF90132964591549112
:1023C000840F951FF90165907490FC01A590B4905D
:1023D000FC013296C4903196B491BA87329624911A
:1023E0002B873196E491EC87F1E0F81508F04DC1A8
:1023F000822F220F990B9C838B83AE2FEE0FBB0B8A
:10240000BE83AD83A981BA81ED91FC9111970284BD
:10241000F385E02DCD01199580E01E86912CD12CFD
:10242000A7C118968D919C911997681779070CF0A0
:10243000AEC11A968D919C911B97481759070CF0C5
:10244000A6C16C2C712CC301880F991F860D971D96
:10245000880F991F860F971F01970AF498C1EA2DDC
:10246000F0E0FC83EB83EE0FFF1FEE0FFF1FEE0F7C
:10247000FF1FFD87EC87CF01840F951F01970AF49A
:1024800086C158968C91811104C02FEA291508F451
:102490009394A981BA81ED91FC9111970284F385FF
:1024A000E02DCD011995A12CAA869B86C884D984DC
:1024B00091C0A981BA81ED91FC9111970684F785AD
:1024C000E02D692D2B813C816203A001639F500D9B
:1024D00011246A9CB0016B9C700D7A9C700D1124C4
:1024E000440D551D620D731D760189019301CD01C7
:1024F000199593948E859F85959587959F878E874F
:10250000EE85F7E0F9150CF462C02E2F30E03F871E
:102510002E87E0FF1AC031E08312CBCF6F8161308C
:1025200041F6A981BA81ED91FC9111970484F5855A
:10253000E02D9601A201490D511D97FC5A95B50158
:10254000620D731DCD011995D4CF8D819E81C81662
:10255000D90679F291E0891611F1A981BA81ED913C
:10256000FC9111970684F785E02D692D2B813C8124
:102570006203A001639F500D11246A9CB0016B9C03
:10258000700D7A9C700D1124440D551D620D731D44
:10259000ED80FE8089019301CD011995AACFAF810D
:1025A000A130D9F6A981BA81ED91FC9111970484EB
:1025B000F585E02D2D813E81A201490D511D97FC2D
:1025C0005A95B501620D731DCD01199592CF9A856B
:1025D0009F5F9A87BA85B530A4F4AB2EBB0FBB08BA
:1025E000EB858E2F90E0FC01EE0FFF1FEE0FFF1F1B
:1025F000E80FF91FEA0DFB1DE057FD4FE491912C08
:1026000080CFA885B985ED81FE81AE17BF07E1F0C7
:10261000F1E08F1621F1A981BA81ED91FC9111971A
:102620000684F785E02DB301660F771F660F771FCD
:10263000660D771D620D731DED80FE800C851D8576
:102640009301A201CD011995A981BA81ED91FC9167
:1026500011970688F789E02DCD01199598C02F8133
:102660002130C9F6A981BA81ED91FC9111970088BA
:10267000F189E02DB1016B5F7F4F0D811E8128E054
:1026800030E0A201CD011995DFCF3F81323008F053
:10269000AFCE1E821D821C821B82B4CEDD20B4F020
:1026A000DD0C8E858F5F8E878889FE85FC1508F08E
:1026B0005EC021E0280F288B877081F7C501019645
:1026C000F301EA0DFB1DD4905C01E8CF31E08316E5
:1026D00069F1A981BA81ED91FC910684F785E02D1D
:1026E000BF810B2F10E0282D30E08D819E81890D58
:1026F000911D089FA001099F500D189F500D112496
:102700008B819C816E85860F911D289FB001299F2A
:10271000700D389F700D1124440D551D620D731DF1
:10272000E884F98489819A811995BACF6F816130E3
:1027300081F6A981BA81ED91FC910484F585E02DA3
:10274000A201BC854B0F511DB7FD5A95490D511D76
:10275000B1012B85620F711D27FD7A953E85630FB0
:10276000711D2885398589819A81199599CF93940E
:10277000BA859B1610F41E8698CFA981BA81ED9177
:10278000FC9111970688F789E02DCD011995609687
:102790000FB6F894DEBF0FBECDBFDF91CF911F9172
:1027A0000F91FF90EF90DF90CF90BF90AF909F90F0
:1027B0008F907F906F905F904F903F902F900895F3
:1027C0008F929F92AF92CF92EF92FF920F931F93AF
:1027D000CF93DF93EC01898D9A8D009709F477C030
:1027E0006A3009F4D0C06D3009F4DFC0FC013496C2
:1027F0002491621708F4D9C03296E491E61708F4E0
:10280000D4C0362F321B232F30E04901880C991C8D
:10281000880C991C880C991C821A930AFC01329628
:1028200025913491820E931EF401329624913196B3
:10283000E491222309F43EC0EE2309F43BC0F401E5
:102840003596E4910E2E000CFF0B3F89332319F1CE
:102850004C855D857C89E20FF11D7E9F90017F9FF5
:10286000300D1124240F351F488559854217530711
:1028700094F41D861C862D8930E00896FC01849115
:10288000829FA001839F500D11248E859F85840F08
:10289000951F9F878E87EA88FB88088919894E854E
:1028A0005F858C859D85AD88CC88262FBC01CE01A7
:1028B0000E949F11F4013496E4912C898C859D85AA
:1028C000E29F800D911D11249D878C876EC06A3018
:1028D00009F448C06D3009F468C08F89882311F16C
:1028E0004C855D852C8930E0C901880F991F820FC6
:1028F000931F880F991F840F951F288539852817E6
:10290000390784F41D861C868D8990E0880F991FF5
:10291000880F991F880F991F2E853F85820F931F5F
:102920009F878E87EA88FB88088919894E855F858D
:102930008C859D85AD88CC88262FBC01CE010E9458
:102940009F118C89282F30E0C901880F991F820FB1
:10295000931F880F991F2C853D85820F931F9D879C
:102960008C8723C01D861C868D8990E0880F991F57
:10297000880F991F880F991F2E853F85820F931FFF
:102980009F878E8712C01D861C862D8930E0FC0132
:102990003896E491E29FA001E39F500D11248E85AB
:1029A0009F85840F951F9F878E8781E090E0DF9140
:1029B000CF911F910F91FF90EF90CF90AF909F908C
:1029C0008F9008953F924F925F926F927F928F9275
:1029D0009F92AF92BF92CF92DF92EF92FF920F93AE
:1029E0001F93CF93DF9300D000D0CDB7DEB79E8387
:1029F0008D835B013A014901FC82EB82DA82C98254
:102A0000C80107962C01A2F0559447945594479419
:102A100055944794AD81BE81ED91FC91119702844C
:102A2000F385E02DCD011995F12CE12C312C40C01E
:102A300027E0420E511CE8CFE49CF001E59CF00D2C
:102A4000F49CF00D1124C601DD2054F19595879575
:102A50009595879595958795E80FF91FE80DF91DD0
:102A60003490332084F4AD81BE81ED91FC911197B7
:102A70000484F585E02D29813A81A301B6016A0D10
:102A80007B1DCD011995BFEFCB1ADB0AC016D1060D
:102A90004CF4C60187709927892B71F2330CE1CF72
:102AA0000796D4CF9FEFE91AF90AAFEF6A1A7A0AAC
:102AB000AB81BC81EA16FB061CF4D12CC12CE6CFFD
:102AC0008D819E81DC01ED91FC910688F789E02DD6
:102AD000199526960FB6F894DEBF0FBECDBFDF91D5
:102AE000CF911F910F91FF90EF90DF90CF90BF900B
:102AF000AF909F908F907F906F905F904F903F909E
:102B000008952F923F924F925F926F927F928F9291
:102B10009F92AF92BF92CF92DF92EF92FF920F936C
:102B20001F93CF93DF93CDB7DEB76E970FB6F894B0
:102B3000DEBF0FBECDBF9C838B837A8B698B5E8398
:102B40004D8319011C870B872701DA82C982BE8653
:102B5000AD860417150754F09B858C855C874B87E1
:102B60009D838E83832D1B01298B8A8B2D813E8132
:102B700089819A818217930764F099818A813A83C7
:102B800029839D838E83942D852D49885A88998B1E
:102B90008A8BAB85BC85E981FA81EA17FB075CF07B
:102BA00099818A81BA83A9839B878C87942D852DEF
:102BB0002101292E382EAB81BC81ED91FC9111971A
:102BC0000284F385E02DCD011995E981FA812D81EB
:102BD0003E81E217F307C9F1F101E419F509F88F15
:102BE000EF8B2B853C8589819A81281B390B3A8F85
:102BF000298FA989BA89A419B509B887AF83ED814E
:102C0000FE81E81BF90BF88BEF8729893A89221995
:102C100033093A8B298B8D819E81AB85BC858A1BBC
:102C20009B0B9C8F8B8FED81FE81AE17BF0709F444
:102C300049C01197BE8BAD8B69807A80812C912C15
:102C40005401C12CD12C760158C02414350424F031
:102C50004214530474F1120189899A8982159305EB
:102C60003CF0481659065CF549885A883A8A298A00
:102C7000AB81BC81ED91FC9111970288F389E02D25
:102C8000920189899A89281B390B2F5F3F4F0D8547
:102C90001E8549815A81BC01CD011995AB81BC814A
:102CA000ED91FC9111970688F789E02DCD011995DA
:102CB000F2C0922D832D1201492E582ECDCF3A8A83
:102CC000298AD6CF2B853C853E8B2D8BB5CFAB810A
:102CD000BC81ED91FC9111970288F389E02D2D8D37
:102CE0003E8D261B370B2F5F3F4F0D851E85A301A1
:102CF000CD011995BFEF6B1A7B0A8D899E898615C8
:102D00009705ECF1C701B601A98DBA8D9D01BB0FE6
:102D1000440B550B0E94D235F201E20FF31FFE8FD8
:102D2000ED8FC501B401AF85B8899D01BB0F440B80
:102D3000550B0E94D235B201620F731FEF89F88DD7
:102D4000CF01FF0FAA0BBB0BC80ED91EEA1EFB1E3C
:102D50002F813885C901330FAA0BBB0B880E991E32
:102D6000AA1EBB1E8D8D9E8D681779070CF4AFCF00
:102D7000962F872F6D8D7E8D9D8F8E8FA8CF898901
:102D80009A89092E000CAA0BBB0B898B9A8BAB8BF3
:102D9000BC8BD301EB85FC85AE1BBF0B29893A891F
:102DA0004B895C890E9404364B015C018F819885B8
:102DB000092E000CAA0BBB0B8F839887A987BA87B3
:102DC000D301E981FA81AE1BBF0B2F81388549857C
:102DD0005A850E9404366B017C0116C0AB81BC8110
:102DE000ED91FC9111970288F389E02D29813A81B8
:102DF000261B370B2F5F3F4F0D851E85A301CD018D
:102E00001995BFEF6B1A7B0A2D813E812615370578
:102E1000C4F1C501B401AB8DBC8D9D01BB0F440B4A
:102E2000550B0E94D235F101E20FF31FFA83E983BB
:102E3000C701B601AF85B8899D01BB0F440B550B87
:102E40000E94D235B201620F731F89899A89AB89BA
:102E5000BC89880E991EAA1EBB1E8F819885A985E4
:102E6000BA85C80ED91EEA1EFB1EA981BA816A174F
:102E70007B070CF4B3CF962F872FBD0199838A83EC
:102E8000ADCFAB81BC81ED91FC9111970688F7899C
:102E9000E02DCD0119956E960FB6F894DEBF0FBEEA
:102EA000CDBFDF91CF911F910F91FF90EF90DF90F9
:102EB000CF90BF90AF909F908F907F906F905F90DA
:102EC0004F903F902F9008952F923F924F925F9294
:102ED0006F927F928F929F92AF92BF92CF92DF922A
:102EE000EF92FF920F931F93CF93DF9300D01F9227
:102EF000CDB7DEB79C838B831B012A0149013801C2
:102F0000FA82E982DC01ED91FC9104A0F5A1E02DAB
:102F100075011995AB81BC81ED91FC91119704A0CD
:102F2000F5A1E02D860129813A81A301B401CD01EB
:102F30001995AB81BC81ED91FC91119704A0F5A18D
:102F4000E02D82019101A60169817A81CD01199557
:102F50000F900F900F900F90DF91CF911F910F91D5
:102F6000FF90EF90DF90CF90BF90AF909F908F90A9
:102F70007F906F905F904F903F902F9008956F9249
:102F80007F928F929F92AF92BF92CF92DF92EF92F9
:102F9000FF920F931F93CF93DF93EC016B015A01C4
:102FA00039014801E881F9810284F385E02D199502
:102FB000E881F9810288F389E02D87019301A50159
:102FC000B601CE011995E881F9810288F389E02DD7
:102FD000A501480D591D415051099301B601CE017B
:102FE0001995E881F9810088F189E02D9401A50106
:102FF000B601CE011995E881F9810088F189E02DAB
:10300000C60CD71CB601615071099401A501CE010F
:103010001995E881F9810688F789E02DCE01199587
:10302000DF91CF911F910F91FF90EF90DF90CF90A4
:10303000BF90AF909F908F907F906F9008952F9248
:103040003F924F925F926F927F928F929F92AF9238
:10305000BF92CF92DF92EF92FF920F931F93CF9385
:10306000DF9300D000D000D01F921F92CDB7DEB703
:103070009A8389834B015A013B872A870B83DF821E
:10308000CE8281E090E02C01421A530AC901919549
:1030900081959109880F991F9987888797012F5FDC
:1030A0003F4F3D832C836A847B84F12CE12C2224C6
:1030B0002394312C43C06A847B843FC02A853B859E
:1030C00026153705D1F13B8130FF19C0A981BA819E
:1030D000ED91FC9111970088F189E02D9701220F65
:1030E000331F8C819D81280F391F0E811F81A501FF
:1030F0004E195F09B301680D791DCD0119959B81AA
:1031000091FFD9CFA981BA81ED91FC9111970088E7
:10311000F189E02D9701220F331F8C819D81280FAB
:10312000391FA5014E195F09B401661977090E818F
:103130001F81CD0119956A847B847601AA85BB85A0
:10314000EA16FB060CF05CC055205CF01197BB87BB
:10315000AA87288539852E5F3F4F39872887420EF9
:10316000531E67013FEFC31AD30A82E0280E311CB9
:10317000420C531C8A859B850196C816D9060CF013
:103180009DCF9B8190FF1CC0A981BA81ED91FC91DC
:103190000088F189E02D2A853B85220F331F8C8121
:1031A0009D81280F391F0E811F81A501AA85BB852E
:1031B0004A1B5B0BB601680D791D89819A811995AF
:1031C000BB81B1FF7BCFA981BA81ED91FC910088D1
:1031D000F189E02D2A853B85220F331F8C819D814B
:1031E000280F391F0E811F81A501AA85BB854A1BA7
:1031F0005B0BB4016C197D0989819A8119955ECFA9
:103200002B960FB6F894DEBF0FBECDBFDF91CF91E6
:103210001F910F91FF90EF90DF90CF90BF90AF90F4
:103220009F908F907F906F905F904F903F902F90E6
:1032300008956F927F928F929F92AF92BF92CF929A
:10324000DF92EF92FF920F931F93CF93DF93EC01E6
:103250004B013A0159016801E881F9810284F38543
:10326000E02D1995E881F9810088F189E02D95011B
:10327000220F331F2F5F3F4FA3014A195B09B4018F
:10328000CE011995F12CE12C03E09501A301B401C5
:10329000CE010E941F18E881F9810688F789E02D88
:1032A000CE011995DF91CF911F910F91FF90EF9073
:1032B000DF90CF90BF90AF909F908F907F906F9056
:1032C00008952F923F924F925F926F927F928F92CA
:1032D0009F92AF92BF92CF92DF92EF92FF920F93A5
:1032E000CF93DF9300D01F92CDB7DEB79C838B8343
:1032F0004B015A016901FA82E98281E090E03C01C8
:10330000621A730A22243324221A330A220C331C31
:10331000F12CE12C44244394512CA0C0BFEFEB1AB4
:10332000FB0A82E0480E511C640C751C02FF24C08D
:10333000AB81BC81ED91FC9111970484F585E02D62
:1033400029813A81A6014A0D5B1DB701680D791DDF
:10335000CD011995AB81BC81ED91FC91119704844D
:10336000F585E02D29813A81A7014A0D5B1DB60143
:10337000680D791DCD01199501FF24C0AB81BC8179
:10338000ED91FC9111970484F585E02D29813A8116
:10339000A5014C195D09B701680D791DCD0119957D
:1033A000AB81BC81ED91FC9111970484F585E02DF2
:1033B00029813A81A5014E195F09B601680D791D71
:1033C000CD01199503FF24C0AB81BC81ED91FC9127
:1033D00011970484F585E02D29813A81A7014A0DD2
:1033E0005B1DB4016C197D09CD011995AB81BC81C0
:1033F000ED91FC9111970484F585E02D29813A81A6
:10340000A6014A0D5B1DB4016E197F09CD01199506
:1034100000FF24C0AB81BC81ED91FC911197048425
:10342000F585E02D29813A81A5014E195F09B40186
:103430006C197D09CD011995AB81BC81ED91FC9191
:1034400011970484F585E02D29813A81A5014C1955
:103450005D09B4016E197F09CD011995EC14FD04C5
:1034600064F477200CF45ACF81E0C81AD108A2E0A6
:103470002A0E311C620C731C51CF0F900F900F90CD
:103480000F90DF91CF910F91FF90EF90DF90CF9051
:10349000BF90AF909F908F907F906F905F904F9074
:1034A0003F902F9008952F923F924F925F926F928C
:1034B0007F928F929F92AF92BF92CF92DF92EF92C4
:1034C000FF920F931F93CF93DF9300D000D01F92F2
:1034D0001F92CDB7DEB798878F831B012A01590150
:1034E0004801DA82C982201731070CF0C7C0690190
:1034F00033230CF4BFC0D594C794CE14DF040CF072
:10350000C7C0AF81B885ED91FC9111970284F38516
:10351000E02DCD011995AF81B885ED91FC91028820
:10352000F389E02D7601EE0CFF1CC5018E199F0971
:103530009E838D83D601A20DB31DBC83AB8309810D
:103540001A819C01A201BD018F8198851995AF81D7
:10355000B885ED91FC9111970288F389E02D340133
:10356000640C751CA3014150510909811A812D81F8
:103570003E816B817C81CD011995AF81B885ED913C
:10358000FC9111970088F189E02D8E189F084C0C52
:103590005D1C09811A819401A201B101CD01199527
:1035A000AF81B885ED91FC9111970088F189E02DEC
:1035B000A20CB31CB5016150710909811A819401F3
:1035C000A201CD011995E980FA8001E09601A201DE
:1035D0006B817C818F8198850E946119AC18BD0830
:1035E000B1E0AB1AB108E980FA8002E09601A201CD
:1035F000B5018F8198850E9461196C187D0881E062
:10360000681A7108E980FA8004E09601A301B50107
:103610008F8198850E946119E980FA8008E09601FF
:10362000A3016B817C818F8198850E946119AF8194
:10363000B885ED91FC9111970688F789E02DCD01B1
:10364000199528960FB6F894DEBF0FBECDBFDF9157
:10365000CF911F910F91FF90EF90DF90CF90BF908F
:10366000AF909F908F907F906F905F904F903F9022
:103670002F9008958FEFC81AD80A3DCF6801112303
:103680001CF0D594C79439CF9FEFC91AD90AF9CF46
:10369000670137CF2F923F924F925F926F927F9246
:1036A0008F929F92AF92BF92CF92DF92EF92FF9252
:1036B0000F931F93CF93DF9300D000D01F921F92E0
:1036C000CDB7DEB79A8389835B013A0179011C8308
:1036D0000B8381E090E01C01221A330A8827992786
:1036E000821B930B880F991F9E838D83A981BA81BA
:1036F000ED91FC9111970284F385E02DCD01199590
:10370000A981BA81ED91FC9111970484F585E02D92
:10371000A701460D571D2B813C81B501CD0119959F
:10372000A981BA81ED91FC9111970484F585E02D72
:10373000A3014E195F092B813C81B501CD0119957B
:10374000A981BA81ED91FC9111970484F585E02D52
:10375000B7016A0D7B1D2B813C81A301CD01199519
:10376000A981BA81ED91FC9111970484F585E02D32
:10377000B5016E197F092B813C81A301CD011995FB
:10378000512C412CCC24C394D12C89819A819887C7
:103790008F8396C0BFEF4B1A5B0A82E0C80ED11C24
:1037A0002C0C3D1CAF81B885ED91FC9111970484E0
:1037B000F585E02D4501840C951C2B813C8187010A
:1037C000060D171DA801B401CD011995AF81B8856B
:1037D000ED91FC9111970484F585E02DC5018419C4
:1037E00095099A8389832B813C81A801BC01CD0175
:1037F0001995AF81B885ED91FC9111970484F585F9
:10380000E02D2B813C8183010E191F09A801B40111
:10381000CD011995AF81B885ED91FC911197048484
:10382000F585E02D2B813C81A80169817A81CD014C
:103830001995AF81B885ED91FC9111970484F585B8
:10384000E02D8301040D151D2B813C81A80147014A
:103850008A0C9B1CB401CD011995AF81B885ED91FF
:10386000FC9111970484F585E02D2B813C81A80102
:10387000C5018E199F099A838983BC01CD011995D1
:10388000AF81B885ED91FC9111970484F585E02D09
:103890008301041915092B813C81A801B401CD01D4
:1038A0001995AF81B885ED91FC9111970484F58548
:1038B000E02D2B813C81A80169817A81CD01199588
:1038C0004E145F0474F433200CF464CF91E0E91AD1
:1038D000F108AD81BE811296BE83AD832A0E3B1ED8
:1038E00059CF8F8198859A838983DC01ED91FC9172
:1038F0000688F789E02D199528960FB6F894DEBF53
:103900000FBECDBFDF91CF911F910F91FF90EF9030
:10391000DF90CF90BF90AF909F908F907F906F90EF
:103920005F904F903F902F9008956F927F928F926B
:103930009F92AF92BF92CF92DF92EF92FF920F933E
:103940001F93CF93DF93EC014B016A0139015801BA
:103950006217730749F140175107F1F1E881F981C6
:103960000284F385E02D1995E881F9810488F589B1
:10397000E02D9301A601B401CE011995E881F981EA
:103980000688F789E02DCE011995DF91CF911F911F
:103990000F91FF90EF90DF90CF90BF90AF909F90EE
:1039A0008F907F906F9008950417150784F4E88135
:1039B000F981048CF58DE02D96012A193B092F5FC2
:1039C0003F4F8701A501B401CE011995DECF8B2DA4
:1039D0005A01C02ED82EEBCF2617370784F4E88182
:1039E000F981068CF78DE02D9401261937092F5F98
:1039F0003F4F8701A601B301CE011995C6CF872D90
:103A00003B01822E982EEBCFEF92FF920F931F93E4
:103A1000DC01ED91FC91119700A0F1A1E02D1A9627
:103A20000D911C911B9718962D913C917B0150E0B4
:103A300040E070E060E019951F910F91FF90EF90CA
:103A400008954F925F926F927F928F929F92AF9262
:103A5000BF92CF92DF92EF92FF920F931F93CF937B
:103A6000DF93EC016B013A01590148012701E8811C
:103A7000F9810284F385E02D19957601C6018A0D3E
:103A80009B1DE816F9067CF4E881F9810088F1892C
:103A9000E02D82019401A301B701CE0119958FEFAA
:103AA000E81AF80AEBCFE881F9810688F789E02D5A
:103AB000CE011995DF91CF911F910F91FF90EF905B
:103AC000DF90CF90BF90AF909F908F907F906F903E
:103AD0005F904F9008958F929F92AF92BF92CF9236
:103AE000DF92EF92FF920F931F93CF93DF93EC013E
:103AF0005B014A016901E881F9810284F385E02DC7
:103B00001995E881F9810488F589E02D95012C0D3E
:103B10003D1D2150310978018401A401B501CE0178
:103B20001995E881F9810688F789E02DCE0119956C
:103B3000DF91CF911F910F91FF90EF90DF90CF9089
:103B4000BF90AF909F908F9008958F929F92AF9269
:103B5000BF92CF92DF92EF92FF920F931F93CF937A
:103B6000DF93EC015B014A0169017801E881F98189
:103B70000284F385E02D1995E881F9810488F5899F
:103B8000E02D84010C0D1D1D015011099501A401AA
:103B9000B501CE011995E881F9810688F789E02DF4
:103BA000CE011995DF91CF911F910F91FF90EF906A
:103BB000DF90CF90BF90AF909F908F900895089521
:103BC000EF92FF920F931F93DC01ED91FC9100A007
:103BD000F1A1E02D19951F910F91FF90EF9008959D
:103BE0000F931F93DC01ED91FC91068CF78DE02D76
:103BF00019951F910F9108950F931F93DC01ED917B
:103C0000FC91048CF58DE02D19951F910F9108956D
:103C1000DC01ED91FC910084F185E02D199508956A
:103C200008952F923F924F925F926F927F928F9260
:103C30009F92AF92BF92CF92DF92EF92FF920F933B
:103C40001F93CF93DF9300D000D0CDB7DEB79A8318
:103C500089836A013E832D83FC82EB82C801841B29
:103C6000950B3C01D2F18D819E81861B970B7C01C7
:103C7000CAF1E614F7045CF0902F812F0D811E81AC
:103C80009D838E839C2D8D2D6B01692F782F0C15B4
:103C90001D055CF09D818E817E836D83692F782F59
:103CA000902F812F8601C92ED82E5601A01AB10A55
:103CB000CB012D813E81821B930B2C01C2F045016B
:103CC000BB20D4F0959487948D819E8186179707A9
:103CD000BCF422242394312C2BC066247724681A48
:103CE000790AC1CFEE24FF24E81AF90AC2CF44248E
:103CF0005524481A590AE3CF3FEF831A930AE2CFBB
:103D000022242A94322C14C0A981BA81ED91FC910D
:103D100011970484F585E02D2B813C814D815E81D6
:103D2000B801CD01199584189508C2F00F5F1F4F97
:103D3000C016D106E4F0E614F70434F7A981BA817D
:103D4000ED91FC9111970484F585E02D2B813C8148
:103D5000A8016D817E81CD011995E5CF2D813E8130
:103D6000220D331D3E832D838A0C9B1CDFCF2696AC
:103D70000FB6F894DEBF0FBECDBFDF91CF911F917C
:103D80000F91FF90EF90DF90CF90BF90AF909F90FA
:103D90008F907F906F905F904F903F902F900895FD
:103DA000FC01138212828FE392E0918380837583FA
:103DB0006483578346837187608753874287168A57
:103DC000158614861786168681E0858B848B2FEFE7
:103DD0003FEF338B228B318B208B878B108E128E93
:103DE000118E08951F93CF93DF93EC01162F40E4BB
:103DF00050E060E870E00E94D01E8BE692E099836C
:103E000088831C8E1B8E88E397E09E8F8D8F18A26F
:103E10001F8E8FEF8CA38DA38EA38FA318A780E591
:103E20008EAF1FAEDF91CF911F910895089590E05E
:103E300080E008956115710521E08207910518F46D
:103E4000FB01849108958BBFFB016791862F089534
:103E50009FEB980F963010F4875308959FE9980FC1
:103E6000963010F48755089580538A3008F08FEF0C
:103E70000895FF920F931F93CF93DF938C01EB0173
:103E8000188219821A821B82F12CF801EF0DF11DA4
:103E900080810E94281F282F8F3F39F48F2DDF91BA
:103EA000CF911F910F91FF90089588819981AA81E8
:103EB000BB8134E0880F991FAA1FBB1F3A95D1F729
:103EC000820F911DA11DB11D88839983AA83BB8395
:103ED000F394DBCF0F931F93CF93C0E0C93008F565
:103EE00040914A0650914B06AC2FB0E09D012F5FE8
:103EF0003F4FF901EE0FFF1FEE0FFF1FEE0FFF1FE9
:103F0000E21BF30BE40FF51F008111812281338145
:103F1000061717072807390711F0CF5FDFCFCF014A
:103F200002C090E080E0CF911F910F9108950F9310
:103F30001F93CF93DF931F921F92CDB7DEB78C01F3
:103F4000FC01848195819A838983408151816281BA
:103F5000738122E030E0CE0101960E94003AF80120
:103F6000108211821282138216820F900F90DF91BD
:103F7000CF911F910F9108956115710521E082077E
:103F8000910520F4FB018591949108958BBFFB016D
:103F900067917691862F972F08956EEF7FEF83E0DC
:103FA00090E00E94BC1F8E3F2FEF920709F490E033
:103FB000892F08950E946A1FFC01892BB1F0868128
:103FC00081FF0BC08D7F8683A0914A06B0914B067E
:103FD000A95BBF4F8C9181508C93868180FD05C079
:103FE000108211821282138216820895AF92BF92BC
:103FF000DF92EF92FF920F931F93CF93DF931F9265
:104000001F92CDB7DEB78FEF9FEC9A83898310E0C4
:1040100000E037E0D32EA89540914A0650914B0618
:10402000D09E5001D19EB00C11247A01EA0CFB1CE9
:10403000F70187819085A185B2850F5F1F4F00979B
:10404000A105B10529F13585232F217031FF30C03D
:1040500021111EC0BC01CD01660F771F881F991F5B
:104060000E94BC1FF7019487838747815085618533
:10407000728522E030E0CE0101960E948038E09106
:104080004A06F0914B06EA0DFB1D85858160858708
:104090000930110509F0BFCF0F900F90DF91CF913C
:1040A0001F910F91FF90EF90DF90BF90AF90089518
:1040B000222351F0D09EC001D19E900D1124840F77
:1040C000951F0E94971FE4CF1782108611861286D3
:1040D0001586DECF01C0A8959091C00095FFFBCF5B
:1040E0008093C60008950F931F93CF93DF938C01A5
:1040F000D62F84E20E946A20C0E0D150B0F483E25F
:104100000E946A208C2F82958F708A30B8F0895A6D
:104110000E946A20CF70CA3098F0C95A8C2FDF9164
:10412000CF911F910F910C946A20F80180810E9419
:104130006A20F80181918F01C80FDFCF805DE8CF41
:10414000C05DECCFCF92DF92EF92FF92CF93DF93DF
:10415000E0914A06F0914B06438154816581768156
:10416000440F551F661F771FC3E2D6E0DF01A85B2F
:10417000BF4FCD012991322F32953F703A3008F46C
:1041800009C1395A3C932F702A300CF405C1295AC1
:1041900011962C931197129626E0C334D20751F74B
:1041A00020914306322F32953F703A3008F4F6C022
:1041B000395ADF01A857BF4F3C932F702A3008F4BB
:1041C000EFC0295ADF01A757BF4F2C9321813281BD
:1041D000E901A4E0D695C795AA95E1F7AC2FAF7099
:1041E000CF70DD272A9708F4DDC0A95AEF01C65722
:1041F000DF4FA883A22FAF70E901CF70DD272A9788
:1042000008F4D2C0A95AEF01C557DF4FA883D901DE
:10421000AB2FBB27A295AF70AA30B10508F4C6C07A
:10422000A95AEF01C457DF4FA883232F3327A22FAA
:10423000AF702F7033272A30310508F4B9C027E555
:104240002A0FDF01A357BF4F2C936A017B01C4E003
:10425000F694E794D794C794CA95D1F72C2D2F7074
:104260003FE0C322DD24EE24FF243AE0C316D1044C
:10427000E104F10408F49FC0295ADF01A257BF4F9F
:104280002C93242F2F706A017B013FE0C322DD2491
:10429000EE24FF243AE0C316D104E104F10408F44B
:1042A0008CC0295ADF01A157BF4F2C936A017B01B3
:1042B000BCE0F694E794D794C794BA95D1F72C2D27
:1042C0002F703FE0C322DD24EE24FF243AE0C31622
:1042D000D104E104F10408F472C0295ADF01A057A7
:1042E000BF4F2C93C52ED62EE72EFF242C2D2F70DA
:1042F0003FE0C322DD24EE24FF243AE0C316D104BC
:10430000E104F10408F45DC0295ADF01AF56BF4F44
:104310002C936A017B0134E1F694E794D794C79417
:104320003A95D1F72C2D2F703FE0C322DD24EE24E7
:10433000FF243AE0C316D104E104F10408F443C0B9
:10434000295ADF01AE56BF4F2C93AB016627772762
:10435000242F2F704F705527662777274A30510535
:104360006105710590F1295ADF01AD56BF4F2C93BD
:10437000119620E32C9311962C93E755FF4F2EE4D2
:1043800020836EE4DF91CF91FF90EF90DF90CF908C
:104390000C947320305DF6CE205DFACE305D09CFEF
:1043A000205D10CFA05D22CFA05D2DCFA05D39CFC5
:1043B00020E32A0F46CF205D60CF205D73CF205DC4
:1043C0008DCF205DA2CF205DBCCF205DCDCF01C0C1
:1043D000A8958091C0008823DCF78091C6000895DD
:1043E00082E08093C000E1ECF0E088E1808386E029
:1043F0008093C2001092C50080E18093C400808148
:10440000806880830895F894EEE6F0E08081887FEC
:104410008083E0E7F0E08081887F8083EFE6F0E052
:104420008081887D8083E1E7F0E08081887D8083E2
:10443000E2E7F0E08081887D8083E3E7F0E080813F
:10444000887D8083789408958F929F92AF92BF92D7
:10445000CF92DF92EF92FF921F93CF93DF93FC01F5
:1044600010811123B1F1EC01818592850197F1F161
:104470000E94560ACB88DC88ED88FE884B015C01DF
:104480008C189D08AE08BF08C980DA80EB80FC80DC
:104490008C149D04AE04BF04B0F16B8B7C8B8D8BB0
:1044A0009E8B4D815E816F8178858B859C85AD85E6
:1044B000BE85481B590B6A0B7B0B413051056105CA
:1044C0007105B9F00196A11DB11D8B879C87AD8741
:1044D000BE87812FDF91CF911F91FF90EF90DF90EA
:1044E000CF90BF90AF909F908F9008950E94B40A94
:1044F000C1CF8F3FFFEF9F07AF07BF0719F31882A8
:10450000188A1F86DFCF10E0E4CFCF93DF93EC0152
:104510000E942422882319F0E989FA891995DF91EC
:10452000CF910895CF93DF93FC0121893289232B0A
:10453000A9F0EC0181859285019799F00E94560AB5
:104540006B8B7C8B8D8B9E8B81E088831B861C867E
:104550001D861E8681E090E0988B8F87DF91CF913A
:1045600008950E94B40A6B8B7C8B8D8B9E8BECCF55
:104570000895CF92DF92EF92FF920F931F93CF9304
:10458000DF93FC01EB01D286C186CD2831F4A8EE81
:10459000B3E00E94F9359B01AC0121833283438350
:1045A0005483E582F68207831087D28BC18B1082F9
:1045B000138A148A158A168A138614861586168617
:1045C000DF91CF911F910F91FF90EF90DF90CF90EF
:1045D0000895CF93DF93CDB7DEB780910A02909113
:1045E0000B02019690930B0280930A0280910802BD
:1045F000909109028130910551F18230910509F4C1
:1046000049C0892B09F068C061E084E30E94390940
:1046100060E083E30E94390960E082E30E94390987
:1046200020910A0230910B028091000290910102C8
:10463000821793070CF070C010920B0210920A02BE
:1046400081E090E090930902809308026AC061E0E3
:1046500084E30E94390961E083E30E94390960E044
:1046600082E30E94390920910A0230910B02809165
:10467000020290910302821793070CF04FC0109230
:104680000B0210920A0282E090E09093090280935C
:10469000080247C060E084E30E94390960E083E3D8
:1046A0000E94390961E082E30E94390920910A02DF
:1046B00030910B02809104029091050282179307BA
:1046C0007CF510920B0210920A0283E090E0909326
:1046D00009028093080225C060E084E30E94390942
:1046E00061E083E30E94390960E082E30E943909B6
:1046F00020910A0230910B028091060290910702EC
:104700008217930774F410920B0210920A0210920F
:1047100009021092080205C0000003C0000001C099
:104720000000DF91CF910895CF93DF931F921F92E6
:10473000CDB7DEB79A83898389819A81FC0182850E
:1047400093850F900F90DF91CF910895CF93DF93D2
:104750001F921F92CDB7DEB79A83898389819A8190
:10476000FC01808591850F900F90DF91CF91089586
:10477000CF93DF9300D01F92CDB7DEB79A838983A2
:104780007C836B8389819A812B813C81FC01338BF3
:10479000228B89819A81FC012289338989819A81BE
:1047A000FC01318B208B0F900F900F900F90DF91B9
:1047B000CF910895CF93DF9300D000D0CDB7DEB76F
:1047C0009A8389837C836B835E834D8389819A81FD
:1047D0002B813C81FC013587248789819A812D8139
:1047E0003E81FC013787268726960FB6F894DEBFF8
:1047F0000FBECDBFDF91CF910895CF93DF9300D04F
:1048000000D0CDB7DEB79A8389834B835C836D83F9
:104810007E838B819C81AD81BE81E981FA8126E016
:10482000AC01BD01CF010E946E0B26960FB6F89425
:10483000DEBF0FBECDBFDF91CF9108950E944037FC
:104840000E941E24DF92EF92FF920F931F93CF934B
:10485000DF93CDB7DEB7A1970FB6F894DEBF0FBEDA
:10486000CDBF7C01CB01BA01D22E19A221E02D15BA
:1048700020F48E010F5D1F4F0EC00F2EFAE0DF2EC9
:10488000F02DF7CFE95CD801EE938D01611571052C
:104890008105910579F02D2D30E050E040E00E9437
:1048A000B035E62F622F732F842F952FEA3054F7FF
:1048B000E05DE9CF1097F9F0FD0101900020E9F7E4
:1048C0003197AF014A1B5B0BD701ED91FC91028040
:1048D000F381E02DB801C7011995A1960FB6F894A0
:1048E000DEBF0FBECDBFDF91CF911F910F91FF9023
:1048F000EF90DF90089590E080E0EFCF2115310533
:1049000049F4DC01ED91FC910190F081E02D642FE0
:10491000199508950E9422240895DC01ED91FC91DF
:104920000280F381E02D42E050E067EB72E01995E0
:1049300008950F931F93CF93DF93EC010E947E2481
:104940008C01CE010E948D24800F911FDF91CF91A9
:104950001F910F9108956115710581F0FB01019080
:104960000020E9F73197AF01461B570BDC01ED91B1
:10497000FC910280F381E02D1995089590E080E08C
:1049800008950F931F93CF93DF93EC010E94AB2404
:104990008C01CE010E948D24800F911FDF91CF9159
:1049A0001F910F910895FC01848195814681578163
:1049B000495F5F4F9A01A2F0359527953595279568
:1049C00035952795829FA001839F500D929F500D92
:1049D000112470E060E0878D90A10E944E37089509
:1049E000295F3F4FE9CFECEEF3E0F0934B06E09305
:1049F0004A0612821182109233041092950410829A
:104A000010929604E3EFF3E08FE3DF011D928A95A5
:104A1000E9F70E94F0210E94CD1F883048F08FE70F
:104A20008093B300E0E7F0E08081826080830895A6
:104A30000E940322FFCF8F929F92AF92BF92CF929C
:104A4000DF92EF92FF920F931F93CF93DF93EC01CE
:104A5000862EB42EA22E902E8F8D98A1892BC9F16F
:104A6000CE010E94D3248E819F81813291050CF466
:104A700058C0805491092C813D8122553109AC01E7
:104A800099230CF448C055954795B90133230CF48C
:104A900045C075956795CC24C394D12C6894EE24B9
:104AA000E6F8F12C02E510E022E839E0CE010E94A0
:104AB000E2148AA22D8D3E8D2115310509F4DBC04B
:104AC000B11055C08E819F81809709F44EC09DE33F
:104AD0004FC04C815D812E813F81295F3F4FC901CD
:104AE0009923BCF09595879595958795959587958C
:104AF0009C01429FC001439F900D529F900D112435
:104B00000E941B3698A38F8F892B09F0A9CF80E0D4
:104B1000A1C00796E7CF4F5F5F4FB5CF6F5F7F4F65
:104B2000B8CF80972C813D8123573109AC0199235F
:104B3000B4F055954795B9013323A4F07595679561
:104B4000CC24C394D12C6894EE24E5F8F12C03E72F
:104B500010E022EA37E0CE010E94E214AACF4F5FB4
:104B60005F4FE7CF6F5F7F4FE9CF9CE301C09B2D85
:104B700099A391107CC0AA2021F088A588230CF06D
:104B8000F4C08D8D9E8D009709F40BC14DA95EA9CF
:104B90006FA978AD0E94710844E06EE977E0CE011C
:104BA0000E941F0F6E816150CE010E94CE0F44E023
:104BB0006AE977E0CE010E941F0F8AA1813009F4D3
:104BC00000C164E1CE010E94CE0F44E066E977E0C7
:104BD000CE010E941F0F8FE88DAF8C819D818038A0
:104BE000910509F4F0C08038910509F4F4C08036CD
:104BF000910509F4FFC012E06AEDCE010E94CE0FCC
:104C0000612FCE010E94CE0F61E8CE010E94CE0F2F
:104C10006DADCE010E94CE0F69EDCE010E94CE0F88
:104C20008AA1813009F4F5C061EFCE010E94CE0F58
:104C300046E060E977E0CE010E941F0F8D8D9E8DCA
:104C4000009709F0E8C0EFA5F8A980819CA9892BFD
:104C5000808381E0DF91CF911F910F91FF90EF90C2
:104C6000DF90CF90BF90AF909F908F900895C90133
:104C70000E94870980CF61E08EA10E949A0961E0BD
:104C80008FA10E949A098EA1082E000C990BFC019D
:104C9000EF5AF24FE491F0E0EE0FFF1FE95AF34FA5
:104CA000259134913EA72DA7FC01E550F34FE491E7
:104CB000EBAB8FA1082E000C990BFC01EF5AF24FC1
:104CC000E491F0E0EE0FFF1FE95AF34FA591B49184
:104CD000B8ABAFA7FC01E550F34FE491ECAB8C917E
:104CE000E82BEC938B8D9C8D892B31F0992009F466
:104CF00042CF0E94D9093FCF61E08CA10E949A095E
:104D000061E08DA10E949A098CA1082E000C990BDC
:104D1000FC01EF5AF24FE491F0E0EE0FFF1FE95A69
:104D2000F34F259134913AA729A78550934FFC0161
:104D3000849189AB8DA1082E000C990BFC01EF5AD0
:104D4000F24FE491F0E0EE0FFF1FE95AF34FA59107
:104D5000B491BCA7ABA78550934FFC0184918AAB5B
:104D6000EC9180958E238C9306CF61E00E949A0986
:104D700061E088A50E94390961E070E080E090E080
:104D80000E947C0A60E088A50E9439096AE070E010
:104D900080E090E00E947C0A61E088A50E943909C9
:104DA000F0CE8B8D9C8D892B21F09EAD8FAD9CBD5F
:104DB0008DBDEFA5F8A990818CA98095892380836A
:104DC000EBCE60E1FFCE2E813F812032310509F02C
:104DD0000ACF12E011CF2E813F812034310509F036
:104DE00006CF8AA1813021F08FEC8DAF12E104CF84
:104DF0008FE9FBCF8E819F81409711F012E0FCCEAE
:104E00008AA1813021F08FEA8DAF12E0F5CE80E1EA
:104E1000FBCF62E20ACF49AD5AAD6BAD7CAD0E94CB
:104E2000710881E017CF2BE632E0FC01318320834B
:104E3000878D90A1009711F00E94B7360895CF9208
:104E4000DF92EF92FF92CF93C82F80914A06909104
:104E50004B06FC01C380D480E580F680CC0CDD1CC1
:104E6000EE1CFF1C46E250E069E672E0885B9F4F53
:104E70000E946135E0914A06F0914B06DF01A7558B
:104E8000BF4F86E28C938C2F82958F708A3008F406
:104E9000FFC0895ADF01A75BBF4F8C938C2F8F70A7
:104EA0008A3008F4F7C0895ADF01A65BBF4F8C93A4
:104EB00080914306982F92959F709A3008F4ECC029
:104EC000995ADF01A25BBF4F9C938F708A3008F420
:104ED000E5C0895ADF01A15BBF4F8C93818192812C
:104EE000AC0124E0569547952A95E1F7242F2F70C1
:104EF0004F7055274A30510508F4D2C0295ADF01B6
:104F0000AC5ABF4F2C93282F2F70AC014F705527F0
:104F10004A30510508F4C6C0295ADF01AB5ABF4FC9
:104F20002C939C01232F332722952F702A30310593
:104F300008F4BAC0295ADF01AA5ABF4F2C93892F0F
:104F40009927282F2F708F7099270A9708F4AEC0E1
:104F5000295ADF01A95ABF4F2C93B701A601A4E03B
:104F60007695679557954795AA95D1F7842F8F70B9
:104F70004F705527662777274A305105610571051F
:104F800008F496C0895ADF01A45ABF4F8C938C2D28
:104F90008F70B701A6014F705527662777274A30D3
:104FA00051056105710508F485C0895ADF01A35ACE
:104FB000BF4F8C93B701A6013CE076956795579556
:104FC00047953A95D1F7842F8F704F7055276627F4
:104FD00077274A3051056105710508F46DC0895A7B
:104FE000DF01A25ABF4F8C9377276F2D5E2D4D2D79
:104FF000842F8F704F705527662777274A305105C9
:105000006105710508F45AC0895ADF01A15ABF4FE2
:105010008C93B701A60194E17695679557954795CE
:105020009A95D1F7842F8F704F7055276627772771
:105030004A3051056105710508F442C0895ADF0103
:10504000A05ABF4F8C936701EE24FF248C2D8F70E4
:105050009FE0C922DD24EE24FF249AE0C916D10482
:10506000E104F10478F1895ADF01AF59BF4F8C9305
:10507000119680E38C9311968C9366E2CF01885B46
:105080009F4FCF91FF90EF90DF90CF900C947320C3
:10509000805D00CF805D08CF905D13CF805D1ACF1B
:1050A000205D2DCF205D39CF205D45CF205D51CFD4
:1050B000805D69CF805D7ACF805D92CF805DA5CF26
:1050C000805DBDCF805DD0CF0F931F93CF93DF93D3
:1050D000FC0101900020E9F73197E81BF90BC09122
:1050E0004A06D0914B068E0107551F4FED35A0F4AF
:1050F000D801EC93C85BDF4FD8014C9150E0BC0164
:10510000CE010E944537F8016081CE01DF91CF9139
:105110001F910F910C9473202CE5F8012083EACFA6
:10512000AF92BF92CF92DF92EF92FF920F931F93B5
:10513000CF93DF9300D000D01F921F92CDB7DEB780
:105140006C01BE016F5F7F4F0E94391FC80ED11CDA
:10515000BE016B5F7F4FC60101960E94391F098116
:105160001A812B813C81B901A801442755276E7F04
:1051700077274115510560487105C1F5780189010E
:105180000170E982FA820B831C83082F10E00E5F06
:105190001F4F0C0D1D1DD12C8D2D90E0B0E0A0E017
:1051A0004D815E816F81788584179507A607B707C3
:1051B00028F08EEB92E00E9464281CC0F8018081E8
:1051C0000E94281F5701AD0CB11CC82EC29480EF5D
:1051D000C822F501C082F80181810E94281F8C2914
:1051E000F5018083D3940E5F1F4FD6CF8AEB92E0F8
:1051F0000E94642828960FB6F894DEBF0FBECDBF7C
:10520000DF91CF911F910F91FF90EF90DF90CF90A2
:10521000BF90AF900895AF92BF92CF92DF92EF927E
:10522000FF920F931F93CF93DF9300D000D01F9274
:105230001F92CDB7DEB78C01BE016F5F7F4F0E941A
:10524000391F90E00196BE016B5F7F4F800F911F69
:105250000E94391F89819A81AB81BC81AC01BD015B
:10526000442755276E7F77274115510520E86207AF
:10527000710509F04BC0A17089839A83AB83BC830D
:10528000AC01CD80DE80EF80F884A0904A06B0901B
:105290004B0660E0062F10E030E020E00C151D0505
:1052A0002E053F0578F080914A0690914B066D815E
:1052B000660FFC01E755FF4F6083885B9F4F0E949C
:1052C00073206FC0E62FF0E0CA018E0F9F1FDC0134
:1052D0002C91322F32953F703A30A0F0395ACF01DD
:1052E000880F991F8A0D9B1DFC01E85BFF4F3083DF
:1052F0002F702A3048F0295A875B9F4FFC0120838A
:105300006F5FC8CF305DEBCF205DF6CF452B462BCE
:10531000472B09F042C0A17089839A83AB83BC8379
:1053200010E0812F90E0B0E0A0E0CD80DE80EF8043
:10533000F8848C159D05AE05BF0508F0B4CFC98073
:10534000DA80EB80FC80BC01CD016C0D7D1D8E1DD3
:105350009F1D0E941A1F982F92959F709A30C8F037
:10536000995A20914A0630914B06412F50E0440F44
:10537000551F240F351FF901E85BFF4F90838F7095
:105380008A3048F0895A275B3F4FD9018C931F5FC1
:10539000C8CF905DE6CF805DF6CF8AEB92E00E94A9
:1053A000642828960FB6F894DEBF0FBECDBFDF91FC
:1053B000CF911F910F91FF90EF90DF90CF90BF9012
:1053C000AF9008954F925F926F927F928F929F92CB
:1053D000AF92BF92DF92EF92FF920F931F93CF9302
:1053E000DF93EC018C015C0120E4A20EB11CF801FA
:1053F00080810E94281FF82EF80181810E94281FB9
:10540000F294A0EFFA22F82AF09223060E5F1F4FC3
:10541000A016B10661F7F50180810E94281F182FA0
:105420001295107FFE01EF5BFF4F80810E94281FC5
:10543000812B80934306FE01EE5BFF4F80810E942B
:10544000281F00914A0610914B06F0E18F9F5001F2
:105450001124F801B282A182FE01ED5BFF4F808131
:105460000E94281FA82AF801B282A182FE01EC5BEB
:10547000FF4F80810E94281FE82EF12CFE2CEE2485
:10548000F29480EFF822EA28FB28F801F282E18208
:10549000FE01EB5BFF4F80810E94281F90E0982F58
:1054A0008827E82AF92AF801F282E182FE01EA5B04
:1054B000FF4F80810E94281FD82EFE01E95BFF4F1D
:1054C00080810E94281F782EFE01E85BFF4F8081BB
:1054D0000E94281FE82EFE01E75BFF4F80810E949B
:1054E000281FF82EFE01E65BFF4F80810E94281FD7
:1054F000882EFE01E55BFF4F80810E94281F912CC2
:10550000B12CA12C34E1880C991CAA1CBB1C3A9527
:10551000D1F790E0B0E0A0E0DC0199278827882946
:105520009929AA29BB299C01AD01272929013A0102
:10553000FE01E45BFF4F80810E94281F90E0B0E0F5
:10554000A0E05CE1880F991FAA1FBB1F5A95D1F7F5
:10555000482A592A6A2A7B2AC35BDF4F88810E9426
:10556000281F90E0B0E0A0E0B82FAA27992788274D
:1055700084299529A629B72930E1D39EA0011124B9
:10558000052E000C660B770B842B952BA62BB72BC7
:105590004E2D50E0542F44275295507F052E000C7D
:1055A000660B770B842B952BA62BB72B2F2D30E07A
:1055B000322F2227A901330F660B770B842B952BF3
:1055C000A62BB72BB695A79597958795F80183835A
:1055D0009483A583B6838EEB92E0DF91CF911F91E8
:1055E0000F91FF90EF90DF90BF90AF909F908F90C2
:1055F0007F906F905F904F900C9464289F92AF9231
:10560000BF92CF92DF92EF92FF920F931F93CF93AF
:10561000DF9300D000D01F921F92CDB7DEB78C0170
:10562000BE016F5F7F4F03960E94391F90E0049682
:10563000BE016B5F7F4F800F911F0E94391FF801E1
:105640008181803309F077C0C980DA80EB80FC80EB
:10565000F694E794D794C79480818A3509F066C0A0
:1056600000914A0610914B065801F7E4AF0EB11CA9
:10567000F5019080F3E0F91508F442C0C701B601C6
:105680000E946A1FFC01892B71F0968191FD06C072
:1056900092609683F50180818F5F80838EEB92E02C
:1056A0000E94642831C0F80190E080E04781508575
:1056B000618572859C012F5F3F4F452B462B472B01
:1056C000D1F49394F501908247E0429FF001439F0B
:1056D000F00D1124E00FF11FC082D182E282F3822B
:1056E000489FF001499FF00D1124E00FF11F8585BF
:1056F00082608587D3CFC901379629303105B1F64D
:1057000081EC92E00E94642828960FB6F894DEBFE0
:105710000FBECDBFDF91CF911F910F91FF90EF9002
:10572000DF90CF90BF90AF909F900895C701B601D2
:105730000E94DA1FB3CF89EB92E00E946428E4CF85
:105740004F925F926F927F928F929F92AF92BF9291
:10575000CF92DF92EF92FF920F931F93CF93DF933D
:1057600000D000D000D01F92CDB7DEB7E0914A063E
:10577000F0914B0610828EE592E04C01B12CA12CE9
:105780008BE592E06C01F12CE12C8EE492E02C018F
:10579000712C612C81E492E09C0150E040E029836F
:1057A0003A834B835C8380E392E09C0150E040E0CD
:1057B0002D833E834F835887A8950E94E72184322A
:1057C000C9F028F4833009F474C1A89563C08B3202
:1057D00009F464C18D32C9F780914A0690914B0655
:1057E000FC01E755FF4F6081885B9F4F0E9473204B
:1057F000A895E2CFE0914A06F0914B06E755FF4F9E
:1058000010820E94E72100E020914A0630914B0669
:105810003A872987F901E755FF4F9081290F311DFC
:105820008332B1F4285B3F4FF90110820E94E721D7
:105830000E94281F182F1295107F0E94E7210E94B6
:10584000281F812B081779F08DE20E946A20B4CFBF
:105850009F5F9083285B3F4FF9018083080FA895D5
:105860000E94E721D1CF8BE20E946A2009851A8528
:10587000085B1F4FF80180818A3509F4BDC0D8F458
:10588000873409F44DC058F48F3309F441C084348F
:1058900009F45BC089EB92E00E9464288DCF8D34BF
:1058A00009F44CC0843511F08834A1F78EEB92E0F6
:1058B0000E94642881CF8D36D1F190F4873669F14A
:1058C0008B3609F442C0833629F70E94F61FE09117
:1058D0004A06F0914B06E655FF4F81E0808343C0B6
:1058E000833709F476C08A3709F486C0813791F688
:1058F0002AE030E0B501A401C8010E946A35892B75
:1059000009F07EC06DE089EC92E00E94732054CFD4
:1059100085EC92E00E9464284FCF0E94A2204CCFD9
:1059200089859A85875B9F4F0E94E22945CF8985AB
:105930009A85875B9F4F0E940B293ECF89859A8568
:10594000875B9F4F0E94902837CF0E94F61F8EEBF7
:1059500092E00E946428E0914A06F0914B06E655D9
:10596000FF4F81E08083E0914A06F0914B068081F1
:10597000811106C0EA5BFF4F8081882309F489C04A
:10598000A89580916A008F7C80936A008DB18064B5
:105990008DB98CB380648CBB8DB380648DBB8EB1AC
:1059A0008F7B8EB92A960FB6F894DEBF0FBECDBF9F
:1059B000DF91CF911F910F91FF90EF90DF90CF90EB
:1059C000BF90AF909F908F907F906F905F904F901F
:1059D0000895E985FA8563817481858196810E94A5
:1059E0006A1F892B11F00E94F61FE0914A06F09180
:1059F0004B0681E08083B7CFC8010E94FE2ADCCE2F
:105A000022E030E0B701A601C8010E946A35892B67
:105A100029F487ED92E00E946428CECE2CE030E09D
:105A2000B301A201C8010E946A35892B29F48CEDCB
:105A300092E00E946428C0CE2CE030E049815A8177
:105A40006B817C81C8010E946A35892B29F48FED16
:105A500092E00E946428B0CE20E130E04D815E816A
:105A60006F817885C8010E946A35892B09F012CFB1
:105A70000E94F61F8EEB92E00E94642888E198E075
:105A80000FB6F894A895809360000FBE90936000C5
:105A9000FFCFA8958DB38F7B8DBB84CFE0914A0655
:105AA000F0914B06E655FF4F8081882309F484CEA0
:105AB00079CFA895E0914A06F0914B06E655FF4F45
:105AC000108282E00E941F2777CECF93DF93CDB75D
:105AD000DEB78CEA93E00E94D32462E08CEA93E084
